:020000040800F2
:1000000028070020D5010008451600083D16000805
:10001000411600089107000859160008000000006A
:100020000000000000000000000000004D16000865
:100030009507000800000000491600085116000846
:10004000EF010008EF010008EF010008EF010008D0
:10005000EF010008EF010008EF010008EF010008C0
:10006000EF010008EF010008EF010008EF010008B0
:10007000EF010008EF010008EF010008EF010008A0
:10008000EF010008EF010008EF010008EF01000890
:10009000EF010008EF010008EF010008EF01000880
:1000A000EF010008EF010008EF010008EF01000870
:1000B000EF010008EF010008EF010008EF01000860
:1000C000EF010008EF010008EF010008EF01000850
:1000D000EF010008EF010008EF010008EF01000840
:1000E000EF010008EF010008EF010008EF01000830
:1000F000EF010008EF010008EF010008EF01000820
:10010000EF010008EF010008EF010008EF0100080F
:10011000EF010008EF010008EF010008EF010008FF
:10012000EF010008EF010008EF010008EF010008EF
:1001300000F002F800F03FF80AA090E8000C8244BA
:100140008344AAF10107DA4501D100F034F8AFF297
:10015000090EBAE80F0013F0010F18BFFB1A43F0A5
:10016000010318472017000040170000103A24BF71
:1001700078C878C1FAD8520724BF30C830C144BF0C
:1001800004680C607047000000230024002500264E
:10019000103A28BF78C1FBD8520728BF30C148BFEA
:1001A0000B607047642900F07D80002070471FB508
:1001B0001FBD10B510BD00F02AF91146FFF7F7FF7B
:1001C00001F04CFA00F048F903B4FFF7F2FF03BC6A
:1001D00000F050F90948804709480047FEE7FEE76C
:1001E000FEE7FEE7FEE7FEE7FEE7FEE7FEE7FEE7E7
:1001F00004480549054A064B70470000551600089B
:1002000031010008280100202807002028030020D1
:10021000280300200FB41CB5074B06AA7B4469468F
:100220000090059800F0DBF80020694600F0EAF83D
:100230001CBC5DF814FB0000E50100002DE9F04155
:100240000E460446002020622046E168884730B30D
:10025000252805D0D4E901219047206A401CF2E707
:10026000E168204600278847050018D0A5F1410025
:10027000192802D820354FF4006732462946204617
:100280002760FFF78FFF40B1012804D0F61D26F04C
:1002900007060836D8E7361DD6E72846DAE7206A8B
:1002A000BDE8F0812DE9F04106460024106875296B
:1002B000314616A510D0AFF30080002802DA404284
:1002C00013A507E031688A0701D512A502E04907A6
:1002D00004D511A5012401E0AFF3008000210A221A
:1002E00006F1240709E0B0FBF2FCB0FBF2F302FBDD
:1002F0001C00303078541846491C0028F3D123469E
:100300002A463046BDE8F04100F00BB8000000007E
:100310002D0000002B0000002000000070477047F7
:1003200070472DE9F0470D4699469246044600F184
:1003300024080168880604D5E06921F010012160D5
:1003400000E00120A84201DD471B00E00027A16971
:100350007A1902EB0900081AA0612078C00602D4BD
:100360002046AFF30080002608E0D4E901211AF806
:1003700006009047206A401C761C20624E45F4DB44
:100380002078C0060AD52046AFF3008006E0D4E905
:10039000012130209047206A401C2062381EA7F1BE
:1003A0000107F4DC07E0D4E9012118F805009047C3
:1003B000206A401C2062281EA5F10105F3DC2046BE
:1003C000AFF300802078000602D50220BDE8F08758
:1003D0000120FBE701694A1C02610878704700B5FB
:1003E0008FB0CDE901310021059105497944CDE96E
:1003F000031011466846FFF721FF0FB000BD000053
:10040000E5FFFFFF0A6802F8010B0A6070477546B6
:1004100000F02CF8AE4605006946534620F0070070
:10042000854618B020B5FFF7E3FEBDE820404FF049
:1004300000064FF000074FF000084FF0000BAC46ED
:10044000ACE8C009ACE8C009ACE8C009ACE8C00938
:1004500021F007018D46704710B50446AFF30080C8
:100460002046BDE81040FFF7AFBE000000487047CF
:100470001000002001491820ABBEFEE72600020054
:1004800070470000B0B582B040F27001C2F20001C6
:1004900000200A7941F67E010DF10604ADF8060050
:1004A000C0F600012046FFF7B5FE40F2E005C2F2BB
:1004B00000050DA1284608224FF6FF7300F08AFFC1
:1004C0002846214601224FF6FF7300F083FF41F6D4
:1004D0007601C0F60001284607224FF6FF7300F0B0
:1004E00079FF02B0B0BD00BF427574746F6E3020EA
:1004F0000000000040F2E000C2F2000002A113225E
:100500004FF6FF7300F066BF427574746F6E302053
:100510004C6F6E6750726573730D0A0040F2E00015
:10052000C2F2000002A10E224FF6FF7300F052BF8C
:10053000427574746F6E3020446F776E0D0A000040
:1005400040F2E000C2F2000002A10E224FF6FF735B
:1005500000F040BF427574746F6E3020486F6C6459
:100560000D0A000040F2E000C2F2000002A10C22DD
:100570004FF6FF7300F02EBF427574746F6E30201B
:1005800055700D0A00000000B0B582B040F2700155
:10059000C2F20001002091F8282041F67E010DF101
:1005A0000604ADF80600C0F600012046FFF732FE53
:1005B00040F2E005C2F200050CA1284608224FF6E1
:1005C000FF7300F007FF2846214601224FF6FF7314
:1005D00000F000FF41F67601C0F600012846072230
:1005E0004FF6FF7300F0F6FE02B0B0BD42757474B2
:1005F0006F6E31200000000040F2E000C2F2000007
:1006000002A113224FF6FF7300F0E4BE427574742A
:100610006F6E31204C6F6E6750726573730D0A00F8
:1006200040F2E000C2F2000002A10E224FF6FF737A
:1006300000F0D0BE427574746F6E3120446F776ED7
:100640000D0A000040F2E000C2F2000002A10E22FA
:100650004FF6FF7300F0BEBE427574746F6E3120AA
:10066000486F6C640D0A000040F2E000C2F2000026
:1006700002A10C224FF6FF7300F0ACBE42757474F9
:100680006F6E312055700D0A00000000B0B582B0C9
:1006900040F27001C2F20001002091F84C2041F6B6
:1006A0007E010DF10604ADF80600C0F600012046FB
:1006B000FFF7B0FD40F2E005C2F200050CA12846AC
:1006C00008224FF6FF7300F085FE284621460122DE
:1006D0004FF6FF7300F07EFE41F67601C0F6000192
:1006E000284607224FF6FF7300F074FE02B0B0BD3B
:1006F000427574746F6E32200000000040F2E0001A
:10070000C2F2000002A113224FF6FF7300F062BE96
:10071000427574746F6E32204C6F6E6750726573E1
:10072000730D0A0040F2E000C2F2000002A10E22A6
:100730004FF6FF7300F04EBE427574746F6E322038
:10074000446F776E0D0A000040F2E000C2F2000034
:1007500002A10E224FF6FF7300F03CBE4275747486
:100760006F6E3220486F6C640D0A000040F2E000AA
:10077000C2F2000002A10C224FF6FF7300F02ABE65
:10078000427574746F6E322055700D0A00000000BF
:10079000FEE700007047000010B504468370062095
:1007A000A4F8050000200029E071A26018BF884766
:1007B00040F2DC01C2F20001086868B1026A014639
:1007C0004AB1106A114630B1026A01461AB1106A84
:1007D00011460028F2D1203100200C60206210BDAB
:1007E00000EB8100C26070472DE9F04F81B040F20C
:1007F000DC00C2F200000468002C00F07F804FF69D
:10080000FF7500264FF0060801274FF002094FF050
:10081000030A4FF0040B04E084F80580246A002CDE
:100820006CD0A16831B1A0788847E179814205D1C7
:100830000CE000BF0020E179814207D0E27801326C
:10084000D3B2042BE27002D30146E071E670A279C4
:10085000C2B123884FF6FF70AB421CBF581C2080EA
:10086000012A11D0022A1FD0032AD7D151B33C2824
:10087000D4D3E06984F805B0002818BF80472680EB
:10088000CCE700BF89B9C7E711B3B0F5C87FC5D3BE
:10089000A06984F805A0002818BF8047267126802B
:1008A00084F806A0BAE700BFE1B1E068667100B164
:1008B00080472079FF281CBF013020712680A77156
:1008C000ACE700BF20696771002818BF804711E0BE
:1008D00020696771002818BF8047268084F8069039
:1008E0009CE700BF3228FFF499AF606984F8059057
:1008F00000B1804726712680A6718FE701B0BDE860
:10090000F08F0000B0B5044600F014F9054640F23F
:100910000000C2F200000078611C18BF044400BF50
:1009200000F008F9401BA042FAD3B0BD2DE9F04F0A
:1009300082B0D1F800C0BCF1000F00F0F180A0F14E
:10094000804241F60045A2F58432C4F2010540F22E
:10095000004E4FEAB2240627A842C4F2010E08BF97
:100960000527052C4FF000044FF001084FF00F034E
:100970004FF0000A4FF0000B38BF4FEAB227009744
:100980000AE000BFD1F800C00AF1010A3CFA0AF2FD
:1009900004F1040400F0C48008FA0AF91CEA090F03
:1009A000F0D04E684FF6FF72C1F21002964211DC91
:1009B000122E55D8DFE806F0340A444854545454F3
:1009C0005454545454545454544C5000D1F80CB012
:1009D00046E000BF4FF6FF72C1F2210296420FDCE3
:1009E0000022C1F2110296421AD00022C1F2120274
:1009F000964215D00022C1F22102964210D02FE07B
:100A00000022C1F2220296420AD00022C1F2310233
:100A1000964205D00022C1F23202964220D100BF98
:100A20008A684AB1012A14BFC0F81490C0F8109027
:100A30004FF0080B14E000BF4FF0040B10E000BFB4
:100A4000CA6802F1080B0BE04FF0000B08E000BF92
:100A5000CA6802F1040B03E0CA6802F10C0B00BF84
:100A600022460646BAF1080F24BF203A04363768FA
:100A700003FA02F5AF430BFA02F23A433260CA7945
:100A8000D2067FF57FAF41F21807C4F202073A6839
:100A90004FF6084342F001023A603A68CFF6FF731E
:100AA00002F001020192019A2AF0030272440F251A
:100AB000D75804F00C06B540AF43009D05FA06F682
:100AC0003743D7504E6840F20C45F203DEF8002061
:100AD00054BF22EA090242EA0902CEF80020DEF8F9
:100AE0000420B70354BF22EA090242EA0902CEF801
:100AF0000420DEF80820C4F20105F70254BF22EA00
:100B0000090242EA0902CEF808200F232A68B70238
:100B100054BF22EA090242EA09022A6032E700BF12
:100B200002B0BDE8F08F00008068084018BF0120C7
:100B30007047000040F22410C2F2000000687047C5
:100B400040F2000040F22411C2F20000C2F20001A3
:100B500000780A68104408607047000080B542F2CF
:100B60000000C4F20200016841F01001016003209E
:100B700000F07AF80F2000F005F800F027F80020C8
:100B800080BD000070B540F20006C2F2000640F2DF
:100B900008013278C2F200014FF47A730968B3FB9E
:100BA000F2F20446B1FBF2F1084600F04FFB0F2CC5
:100BB0004FF0010508D838B94FF0FF302146002228
:100BC000002500F025F87460284670BD82B041F21F
:100BD0001800C4F202000168022241F00101016024
:100BE000016801F0010101910199416841F08051D2
:100BF0004160406800F08050009000980420C4F2EA
:100C00000100016862F31A61016002B070470000E0
:100C100010B54EF60C5CCEF2000CDCF80030C3F3DD
:100C2000022E8EF00704042C28BF0424BEF1030317
:100C30004FF0FF3E0EFA04F438BF0023A143994061
:100C40000EFA03F39A43114300F00F0200F16043E0
:100C50000901043A03F564436244002848BF02F1E5
:100C60000C03197010BD00004EF60C51CEF20001BD
:100C70000A684FF6FF031A4060F30A2242F08060D0
:100C800040F0FD70086070472DE9F04381B0002806
:100C900000F0858042F20008C4F202080446D8F849
:100CA00000000D4600F0070088420CD2D8F8000082
:100CB00020F007002843C8F80000D8F8000000F032
:100CC0000700A8426BD1206841F204098107C4F2F1
:100CD000020917D5410705D5D9F8001041F4E061A4
:100CE000C9F80010010705D5D9F8001041F460518A
:100CF000C9F80010D9F80010A26821F0F0011143E2
:100D0000C9F80010C00741D1D8F8000000F0070072
:100D1000A8420CD9D8F8000020F007002843C8F8F2
:100D20000000D8F8000000F00700A84237D1206882
:100D3000410707D5D9F80010E26821F4E0611143BA
:100D4000C9F80010000708D5D9F80000216920F47F
:100D5000605040EAC100C9F80000D9F8002002F054
:100D60000C00082841F20020C0F27A0050D141F670
:100D70006603C2F38341C0F60003595CD2033BD43F
:100D800040F60010C0F23D00484341E06068022890
:100D90000AD001282AD159F8041C890308D401205B
:100DA00001B0BDE8F08300BF59F8041C8901F6D5F5
:100DB000D9F8001021F003010843C9F80000FFF73B
:100DC000B9FE064641F28837D9F80000616800F0A4
:100DD0000C00B0EB810F97D0FFF7ACFE801BB84240
:100DE000F2D9032001B0BDE8F08300BF59F8041C1C
:100DF0008907D4D5DCE700BFD9F8002041F64C03C1
:100E0000C2F34042C0F600039A5C4843B0FBF2F0E4
:100E1000D9F8001041F64E02C1F30311C0F60002EA
:100E2000515C40F2080220FA01F140F20400C2F2E3
:100E300000000068C2F200021160FFF7A3FE00206C
:100E400001B0BDE8F083000040F2080041F2040167
:100E5000C2F20000C4F202010068096841F65E02B5
:100E6000C1F30221C0F60002515CC8407047000087
:100E700040F2080041F20401C2F20000C4F2020193
:100E80000068096841F65E02C1F3C221C0F60002A3
:100E9000515CC840704700002DE9F04182B0002845
:100EA00068D00446007841F20006C007C4F202068A
:100EB00025D0706800F00C0004281BD0706800F08A
:100EC0000C00082802D17068C00313D460680028A1
:100ED00000F06881B0F5A02F00F07C81B0F5803F74
:100EE00000F07C81306820F480303060306820F47D
:100EF000802076E13068800301D56068D0B3207827
:100F0000800718D5706810F00C0F07D0706800F0DB
:100F10000C0008286ED17068C0036BD4306880075D
:100F200002D52069012825D13068616920F0F800D8
:100F300040EAC1003060207800071FD420784007C5
:100F400032D4E56995B1706800F00C00082840F0D3
:100F50008F80012D0ED07068216A00F480328A42A1
:100F600008D1616A00F47010884203D1002002B0F9
:100F7000BDE8F081012002B0BDE8F081A069002841
:100F800062D00020C4F242200121C0F88014FFF793
:100F9000D1FD0546706A800700F18C80FFF7CAFD1D
:100FA000401B0228F6D92AE1F06910F0805808D1D8
:100FB000F06940F08050F061F06900F080500090DE
:100FC000009847F20007C4F200073868C00529D42A
:100FD000386840F480703860FFF7ACFD054600BF0C
:100FE0003868C0051ED4FFF7A5FD401B6428F7D95B
:100FF00005E100BF2069002840F20000C4F2422051
:1010000000F0828001210160FFF794FD054600BFDA
:10101000306880073FF588AFFFF78CFD401B022842
:10102000F6D9ECE0E068002800F08080052800F0A8
:101030009780012800F09880306A20F0010030622B
:10104000306A20F0040092E00020C4F24220002127
:10105000C0F88014FFF76EFD054600BF706A800778
:101060007FF56CAFFFF766FD401B0228F6D9C6E09E
:101070000027C4F2422700203866FFF75BFD022DEF
:1010800005460BD13068800140F1BE80FFF752FD6C
:10109000401B02284FF00300F4D968E73068800154
:1010A0007FF564AFFFF746FD401B02284FF00300B9
:1010B000F4D95CE740F20800C2F20000006844F690
:1010C000D351C1F26201A0FB0101480A019000BFA7
:1010D00000BF0198411E002801913FF42FAF00BFCF
:1010E0000198411E002801913FF428AF00BF0198EC
:1010F000411E002801913FF421AF00BF0198411E1D
:1011000000280191E4D119E700210160FFF712FDE9
:10111000054600BF306880077FF50DAFFFF70AFD79
:10112000401B02284FF00300F4D920E7306A20F07A
:1011300001003062306A20F004003062FFF7FAFCF0
:10114000054641F2883700BF306A800720D5FFF797
:10115000F1FC401BB8424FF00300F5D907E700BF90
:10116000306A40F004003062306A40F001003062C2
:10117000FFF7E0FC054641F2883700BF306A800780
:1011800006D4FFF7D7FC401BB842F7D937E000BFC1
:10119000B8F1000F7FF4D5AEF06920F08050F06117
:1011A000CFE600BF306820F480303060306820F433
:1011B00080203060FFF7BEFC054600BF306880032A
:1011C0007FF59DAEFFF7B6FC401B64284FF003008F
:1011D000F4D9CCE6306840F480203060306840F4C8
:1011E00080303060FFF7A6FC054600BF3068800302
:1011F0003FF585AEFFF79EFC401B6428F6D903201F
:1012000002B0BDE8F08100BF206AB0F5803F05D193
:101210007168A26821F40031114371607168626ADB
:1012200021F4741111430843706001203866FFF700
:1012300081FC0446306880013FF598AEFFF77AFCE8
:10124000001B02284FF00300F4D990E6411E002055
:10125000B0EB116F1CBF012070474EF21002CEF2AE
:10126000000251604EF62351CEF20001F0230B70C4
:101270000721906011607047002804BF012070476B
:1012800010B5044690F83D0028B9002084F83C00D1
:10129000204600F061F8242084F83D002068D4E95D
:1012A0000212C36823F40053C360036923F440535C
:1012B0001A430261D4E904231143C268194341F27D
:1012C0000C639A431143C1604169A26921F44071E2
:1012D000114343F60002C4F201029042416103D07F
:1012E000FFF7B2FD02E000BFFFF7C2FD62681921FF
:1012F00048439100B0FBF1F048F21F51C5F2EB11E9
:10130000A0FB01235A094FF69C73C0F6FF7302FB42
:101310000300322303EB0010A0FB0101F02303EADA
:101320005113206803EB0212C1F343111144816091
:10133000016921F490410161416921F02A01416173
:10134000C16841F40051C16000202021206484F86C
:101350003D1084F83E1010BD70B586B040F6000414
:10136000C4F20104006804F5405100268842049646
:1013700002D006B070BD00BF41F21800C4F20200F6
:10138000016802AD41F480410160016801F48041CF
:1013900001910199016841F004010160006829464A
:1013A00000F00400019001984FF4007002900220B8
:1013B0000390032005902046FFF7B8FA4FF48060B1
:1013C000CDE90206204629460496FFF7AFFA06B09B
:1013D00070BD00002DE9F041044690F83D00202842
:1013E0000ED10D4600294FF0010000F08E80164608
:1013F000002A08BFBDE8F08194F83C00012803D121
:101400000220BDE8F08100BF012084F83C000020EC
:1014100020642120984684F83D00FFF78BFBA684CA
:10142000E684A1680646B1F5805F03D120690028F3
:1014300000F0A0802F460025002084F83C00E08CBE
:10144000E0B118F101001BD0B8F1000F60D12068A5
:101450000BE000BF35F8021B00276FF35F214160EE
:10146000E18C0139E184E18C51B3016809066DD545
:10147000002FEFD017F8011BF1E700BF20681FE035
:10148000206802E00168090609D40168090606D44B
:10149000016809065CBF01685FEA0161F2D51FB10E
:1014A00017F8011B05E000BF35F8021B00276FF39A
:1014B0005F214160E18C0139E184E18C0029E4D1B4
:1014C000016849061DD4B8F1000F3FD018F10101A1
:1014D0000ED10168490614D4016849065CBF016851
:1014E0005FEA41610DD401684906F2D509E000BF09
:1014F000FFF720FB811B2068414527D80068400684
:10150000F6D5202084F83D000020BDE8F08100BF22
:10151000206800BF0168090606D4FFF70BFB811B9A
:1015200020684145F6D911E017B117F8011B04E016
:1015300035F8021B00276FF35F214160E18C013910
:10154000E184E18C0029E5D1BAE700BFC16821F44C
:10155000D071C160416921F001014161202084F80E
:101560003D0084F83E00002084F83C000320BDE8E4
:10157000F08100BF00275FE7F0B585B0002641F29B
:1015800018000496C4F20200016840F6000441F01D
:10159000400101600168C4F2010401F040010091C2
:1015A0000099016801AD41F0040101600068012764
:1015B00000F00400009000981820CDE9010604F521
:1015C000805029460397FFF7B1F902200390204687
:1015D0002946CDE90176FFF7A9F905B0F0BD000075
:1015E00080B5022810D001281CD000281CBF002084
:1015F00080BD41F60000C4F201001021FFF794FA0B
:10160000B0FA80F0400980BD41F60000C4F201004C
:10161000A0F580500121FFF787FA002818BF0120AC
:1016200080BD00BF41F60000C4F201000821FFF7B1
:101630007BFAB0FA80F0400980BD0000FEE70000B0
:10164000FEE70000FEE70000704700007047000062
:10165000FFF776BA70470000FEE7000090B0FFF792
:101660007DFA00240120CDE90B44CDE90944069020
:101670000A904FF4E0104FF4803102250F9006A835
:10168000CDE90714CDE90D51FFF706FC10B172B694
:10169000FEE700BF0F20CDE901054FF48060CDE9E2
:1016A000040401A802210394FFF7EEFA10B172B608
:1016B000FEE700BF40F2E00043F60001C2F2000086
:1016C000C4F20101002308274FF4165280E80E00EF
:1016D000C0E90333C0E90573C361FFF7CDFD18B15D
:1016E00072B600BFFEE700BF40F27004C2F2000411
:1016F00040F21D52C0F6000220460021FFF770F8AC
:1017000040F26552C0F6000220460121FFF768F85A
:1017100040F28542C0F6000220460221FFF760F841
:1017200040F2F542C0F6000220460321FFF758F8C8
:1017300040F24152C0F6000220460421FFF750F863
:1017400041F2795541F2E156C0F60005C0F60006B7
:101750002046294632460023FFF71EF804F12407ED
:1017600040F22162C0F6000238460021FFF738F847
:1017700040F26962C0F6000238460121FFF730F8F6
:1017800040F28952C0F6000238460221FFF728F8DD
:1017900040F2F952C0F6000238460321FFF720F864
:1017A00040F24562C0F6000238460421FFF718F8FF
:1017B0003846294632460123FEF7EEFF483440F210
:1017C0002572C0F6000220460021FFF709F840F21A
:1017D0006D72C0F6000220460121FFF701F840F2C9
:1017E0008D62C0F6000220460221FEF7F9FF40F2AA
:1017F000FD62C0F6000220460321FEF7F1FF40F231
:101800004972C0F6000220460421FEF7E9FF204697
:10181000294632460223FEF7BFFF40F2E000C2F243
:10182000000006A10D224FF6FF73FFF7D3FD00BFA6
:101830000520FFF767F8FEF7D7FFF9E753746172E9
:10184000742054657374210D0A0000000102000029
:101850000000000000000102030406070809000060
:1018600000000102030402030405060708090A0B2D
:101870000C0D0E0F1010436C69636B0D0A0025648C
:1018800000000000A8180008000000201000000060
:101890006C010008B81800081000002018070000AC
:1018A0008801000800000000010000001000000096
:0818B0000024F4000000000018
:0400000508000131BD
:00000001FF
