:100000000206F78B1A8A1B891C1207FAAB1AAA1B65
:10001000A91C90000612028A601312030CC394FFFD
:10002000E5F094FF5007E475F001120337AB1AAA0C
:100030001BA91C90000612028A1460671470030248
:1000400001441470030201F724036003020270905C
:10005000000712028A6401703C9000051202EA90C7
:10006000000B12039AEA494B600FAB1AAA1BA91C9A
:1000700090000B12039A120423AB1AAA1BA91C901E
:10008000000412028AC394FF500890000474011205
:1000900002B702018DAB1AAA1BA91C9000057406B9
:1000A00002026DAB1AAA1BA91C90000712028A70EB
:1000B0003B900005041202EA90000E12039AEA49EE
:1000C0004B600FAB1AAA1BA91C90000E12039A12C8
:1000D0000423AB1AAA1BA91CE4F5F012036FAB1A98
:1000E000AA1BA91C900006740202026DAB1AAA1B7F
:1000F000A91C12030CC394C8E5F09400500302023B
:100100007090000574031202EA90001412039AEA38
:10011000494B600FAB1AAA1BA91C90001412039A3A
:10012000120423AB1AAA1BA91C900004E41202EAD1
:10013000E4F5F012036FAB1AAA1BA91C9000067419
:100140000302026DAB1AAA1BA91C90000712028AB7
:100150006401704D9000051202EA90000B12039AA0
:10016000EA494B600FAB1AAA1BA91C90000B1203A3
:100170009A120423AB1AAA1BA91C90000412028A2B
:10018000C394FF500890000474011202B7E4F5F024
:1001900012036FAB1AAA1BA91C900006740102027D
:1001A0006DAB1AAA1BA91C12030CC3943CE5F09476
:1001B00000500302027090000574021202EA9000DF
:1001C0001112039AEA494B600FAB1AAA1BA91C90A3
:1001D000001112039A120423AB1AAA1BA91C900047
:1001E00004E41202EAE4F5F012036FAB1AAA1BA9A9
:1001F0001C900006E48076AB1AAA1BA91C9000078D
:1002000012028AB4012290000574041202EA9000DE
:100210001712039AEA494B6057AB1AAA1BA91C9004
:10022000001712039A020423AB1AAA1BA91C900000
:100230000574011202EA90000E12039AEA494B601B
:100240000FAB1AAA1BA91C90000E12039A120423CA
:10025000AB1AAA1BA91C900004E41202EAE4F5F010
:1002600012036FAB1AAA1BA91C900006E41202EA43
:1002700022BB010689828A83E0225002E722BBFE6C
:1002800002E32289828A83E49322BB010CE582295E
:10029000F582E5833AF583E0225006E92582F8E607
:1002A00022BBFE06E92582F8E222E58229F582E5F5
:1002B000833AF583E49322BB010FF8E58229F582A6
:1002C000E5833AF583E028F0225009C58229F8E554
:1002D0008226F622BBFE09C58229F8E22582F22297
:1002E000F8EA2583F583E9932822F8BB010DE5821E
:1002F00029F582E5833AF583E8F0225006E9258264
:10030000C8F622BBFE05E92582C8F222BB010A8994
:10031000828A83E0F5F0A3E022500687F009E7190E
:1003200022BBFE07E3F5F009E3192289828A83E400
:1003300093F5F074019322BB010789828A8302043A
:1003400029500B09C5F027F7C5F01937F722BBFE76
:100350000D09F8E325F0F3C5F019E338F322F88925
:10036000828A8374019325F0C5F0F8E4933822BBA8
:10037000010A89828A83F0E5F0A3F0225006F7098A
:10038000A7F01922BBFE06F3E5F009F31922A42514
:1003900082F582E5F03583F58322BB010DE58229E4
:1003A000F582E5833AF5830204515007E92582F886
:1003B00002043FBBFE07E92582F8020463E58229B7
:1003C000F582E5833AF583020475BB0120E58229B5
:1003D000F582E5833AF583D0F0D0E0F8D0E0F9D0AB
:1003E000E0FAD0E0FBE8C0E0C0F002045A5018E99F
:1003F0002582F8D083D082D0E0F9D0E0FAD0E0FBBB
:10040000C082C083020448BBFE18E92582F8D0836D
:10041000D082D0E0F9D0E0FAD0E0FBC082C0830205
:10042000046C228A838982E473C5F0F8A3E028F083
:10043000C5F0F8E582158270021583E038F022E6F7
:10044000FB08E6FA08E6F922EBF608EAF608E9F610
:1004500022E0FBA3E0FAA3E0F922EBF0A3EAF0A389
:10046000E9F022E2FB08E2FA08E2F922EBF208EAFC
:10047000F208E9F222E493FB740193FA740293F90F
:1004800022759850758920758BFD758DFDD28E75FE
:100490001BFF751C0A751D007B017A007900E4FDC5
:1004A0001208DA751BFF751C0A751D0C7B017A009A
:1004B00079007D011208DA751BFF751C09751D5244
:1004C0007B017A0079007D021208DA751BFF751C2A
:1004D0000A751D187B017A0079007D031208DA7510
:1004E0001BFF751C0A751D247B017A0079007D04B1
:1004F0001208DA85081A85091B850A1C85141D85D2
:10050000151E85161FE4F5207B017A00790012067E
:100510002A751BFF751C09751D647B017A00791D06
:10052000E4FD1208DA751BFF751C09751D767B0149
:100530007A00791D7D011208DA751BFF751C09759B
:100540001D227B017A00791D7D021208DA751BFFDE
:10055000751C09751D887B017A00791D7D031208C1
:10056000DA751BFF751C09751D9A7B017A00791DD0
:100570007D041208DA85081A85091B850A1C851472
:100580001D85151E85161F7520017B017A00791DBA
:1005900012062A751BFF751C09751DAC7B017A00BC
:1005A000793AE4FD1208DA751BFF751C09751DBE4A
:1005B0007B017A00793A7D011208DA751BFF751C00
:1005C00009751D3A7B017A00793A7D021208DA75C5
:1005D0001BFF751C09751DD07B017A00793A7D03DC
:1005E0001208DA751BFF751C09751DE27B017A0084
:1005F000793A7D041208DA85081A85091B850A1CD8
:1006000085141D85151E85161F7520027B017A0035
:10061000793A12062A7BFF7A0A796E1208B47F05AE
:100620007E0012090012084180F48B178A1889197C
:10063000752100752200752300900002E52012024A
:10064000EA90000574061202EA900007E41202EA3A
:10065000900006E41202EAAB1DAA1EA91FC003C047
:1006600002C001AB17AA18A9199000081203CAAA60
:100670001BA91C120423E52945284527701A851754
:1006800027851828851929FBFAF9C003C002C00183
:10069000AB27AA28A92980588527218528228529C2
:1006A00023AB21AA22A92390001A12039AEA494BEC
:1006B0006014AB21AA22A92390001A12039A8B215D
:1006C0008A22892380DBAB17AA18A919C003C002AC
:1006D000C001AB21AA22A92390001A1203CA7B00F1
:1006E0007A007900C003C002C001AB17AA18A9198B
:1006F00090001A1203CA22787FE4F6D8FD7581298A
:1007000002073E020481E493A3F8E493A34003F6B6
:100710008001F208DFF48029E493A3F85407240C45
:10072000C8C333C4540F4420C8834004F456800126
:1007300046F6DFE4800B0102040810204080900799
:1007400083E47E019360BCA3FF543F30E509541F4E
:10075000FEE493A360010ECF54C025E060A840B82A
:10076000E493A3FAE493A3F8E493A3C8C582C8CAA8
:10077000C583CAF0A3C8C582C8CAC583CADFE9DE7B
:10078000E780BE5D000000000000000000000000E7
:100790000000000000000000000000000000000059
:1007A0000000005D001D00000000000000000000CF
:1007B0000000000000000000000000000000000039
:1007C0000000005D003A0000000000000000000092
:1007D0000000000000000000000000000000000019
:1007E00000000003270000000F08FF0A30FF0A3155
:1007F000FF0A32FF0A33FF0879008B1D8A1E891F0A
:1008000090000212028AFF90000812039A89828ADD
:1008100083120427AB1DAA1EA91F90000712028A8B
:100820006F601690000374011202B7C39403401066
:10083000900007EF1202EA8000900003E41202EA3F
:100840002275170075180075190085271785281857
:10085000852919E51845194517601DAB17AA18A970
:1008600019120003AB17AA18A91990001A12039ABB
:100870008B178A18891980DB22E4FEEF14601414A8
:10088000601E24027025E5B07F0130E3027F00AED8
:10089000078018E5B07F0130E2027F00AE07800BD1
:1008A000E5A07F0030E0027F01AE07AF06227BFFAC
:1008B0007A0A79348B248A258926AB24AA25A9268D
:1008C000120271FF60130526E5267002052514F952
:1008D000120271FF1209F880E1228B178A18891918
:1008E000AB1BAA1CA91DC003C002C001AB17AA18EC
:1008F000A91990000B75F003ED12038E1203CA22A2
:10090000AC06AD07D3ED9400EC940040147A007B64
:1009100072EB1B70011AEB4A70F7ED1D70E61C803C
:10092000E3227BFF7A0A795C1208B4900021120955
:10093000F47BFF7A0A79490208B47BFF7A0A796569
:100940001208B490003E1209F47BFF7A0A7949023A
:1009500008B41208AE9000041209F47BFF7A0A79F9
:10096000490208B47BFF7A0A795C1208B47BFF7AEB
:100970000A793D0208B47BFF7A0A795C1208B47BDD
:10098000FF7A0A79440208B47BFF7A0A795C12087C
:10099000B47BFF7A0A794E0208B47BFF7A0A795C4D
:1009A0001208B47BFF7A0A79550208B47BFF7A0AF1
:1009B00079651208B47BFF7A0A793D0208B47BFF9F
:1009C0007A0A79651208B47BFF7A0A79440208B47E
:1009D0007BFF7A0A79651208B47BFF7A0A794E02A6
:1009E00008B47BFF7A0A79651208B47BFF7A0A792A
:1009F000550208B4E02430FF8F993099FDC2992246
:100A00001208AE7BFF7A0A793D0208B41208AE7B69
:100A1000FF7A0A79440208B41208AE7BFF7A0A7999
:100A20004E0208B41208AE7BFF7A0A79550208B468
:100A300022222222427574746F6E302000446F7738
:100A40006E0D0A0055700D0A00BBF70D0A00B3A425
:100A5000B0B40D0A00486F6C640D0A0042757474DE
:100A60006F6E312000427574746F6E322000BFAA21
:090A7000CABCB2E2CAD40D0A00AE
:00000001FF
