:100000000206FF8B0B8A0C890D1207F1AB0BAA0CB1
:10001000A90D90000612028A601312030CC394FF0C
:10002000E5F094FF5007E475F001120337AB0BAA1B
:100030000CA90D90000612028A1460671470030266
:1000400001441470030201F724036003020270905C
:10005000000712028A6401703C9000051202EA90C7
:10006000000B12039AEA494B600FAB0BAA0CA90DC7
:1000700090000B12039A120423AB0BAA0CA90D904B
:10008000000412028AC394FF500890000474011205
:1000900002B702018DAB0BAA0CA90D9000057406E6
:1000A00002026DAB0BAA0CA90D90000712028A7018
:1000B0003B900005041202EA90000E12039AEA49EE
:1000C0004B600FAB0BAA0CA90D90000E12039A12F5
:1000D0000423AB0BAA0CA90DE4F5F012036FAB0BD4
:1000E000AA0CA90D900006740202026DAB0BAA0CBB
:1000F000A90D12030CC39490E5F094015003020281
:100100007090000574031202EA90001412039AEA38
:10011000494B600FAB0BAA0CA90D90001412039A67
:10012000120423AB0BAA0CA90D900004E41202EAFE
:10013000E4F5F012036FAB0BAA0CA90D9000067446
:100140000302026DAB0BAA0CA90D90000712028AE4
:100150006401704D9000051202EA90000B12039AA0
:10016000EA494B600FAB0BAA0CA90D90000B1203D0
:100170009A120423AB0BAA0CA90D90000412028A58
:10018000C394FF500890000474011202B7E4F5F024
:1001900012036FAB0BAA0CA90D90000674010202AA
:1001A0006DAB0BAA0CA90D12030CC39432E5F094AD
:1001B00000500302027090000574021202EA9000DF
:1001C0001112039AEA494B600FAB0BAA0CA90D90D0
:1001D000001112039A120423AB0BAA0CA90D900074
:1001E00004E41202EAE4F5F012036FAB0BAA0CA9C7
:1001F0000D900006E48076AB0BAA0CA90D900007C9
:1002000012028AB4012290000574041202EA9000DE
:100210001712039AEA494B6057AB0BAA0CA90D9031
:10022000001712039A020423AB0BAA0CA90D90002D
:100230000574011202EA90000E12039AEA494B601B
:100240000FAB0BAA0CA90D90000E12039A120423F7
:10025000AB0BAA0CA90D900004E41202EAE4F5F03D
:1002600012036FAB0BAA0CA90D900006E41202EA70
:1002700022BB010689828A83E0225002E722BBFE6C
:1002800002E32289828A83E49322BB010CE582295E
:10029000F582E5833AF583E0225006E92582F8E607
:1002A00022BBFE06E92582F8E222E58229F582E5F5
:1002B000833AF583E49322BB010FF8E58229F582A6
:1002C000E5833AF583E028F0225009C58229F8E554
:1002D0008226F622BBFE09C58229F8E22582F22297
:1002E000F8EA2583F583E9932822F8BB010DE5821E
:1002F00029F582E5833AF583E8F0225006E9258264
:10030000C8F622BBFE05E92582C8F222BB010A8994
:10031000828A83E0F5F0A3E022500687F009E7190E
:1003200022BBFE07E3F5F009E3192289828A83E400
:1003300093F5F074019322BB010789828A8302043A
:1003400029500B09C5F027F7C5F01937F722BBFE76
:100350000D09F8E325F0F3C5F019E338F322F88925
:10036000828A8374019325F0C5F0F8E4933822BBA8
:10037000010A89828A83F0E5F0A3F0225006F7098A
:10038000A7F01922BBFE06F3E5F009F31922A42514
:1003900082F582E5F03583F58322BB010DE58229E4
:1003A000F582E5833AF5830204515007E92582F886
:1003B00002043FBBFE07E92582F8020463E58229B7
:1003C000F582E5833AF583020475BB0120E58229B5
:1003D000F582E5833AF583D0F0D0E0F8D0E0F9D0AB
:1003E000E0FAD0E0FBE8C0E0C0F002045A5018E99F
:1003F0002582F8D083D082D0E0F9D0E0FAD0E0FBBB
:10040000C082C083020448BBFE18E92582F8D0836D
:10041000D082D0E0F9D0E0FAD0E0FBC082C0830205
:10042000046C228A838982E473C5F0F8A3E028F083
:10043000C5F0F8E582158270021583E038F022E6F7
:10044000FB08E6FA08E6F922EBF608EAF608E9F610
:1004500022E0FBA3E0FAA3E0F922EBF0A3EAF0A389
:10046000E9F022E2FB08E2FA08E2F922EBF208EAFC
:10047000F208E9F222E493FB740193FA740293F90F
:1004800022759850758920758BFD758DFDD28E75FE
:100490000CFF750D0A750E0A7B017A007900E4FDE8
:1004A0001208E4750CFF750D0A750E167B017A00B3
:1004B00079007D011208E4750CFF750D09750E5C5D
:1004C0007B017A0079007D021208E4750CFF750D3E
:1004D0000A750E227B017A0079007D031208E4750B
:1004E0000CFF750D0A750E2E7B017A0079007D04D4
:1004F0001208E4750BFF750C0A750D3A750EFF7541
:100500000F08751083E4F5117B017A00790012065B
:100510002A750CFF750D09750E6E7B017A00791D29
:10052000E4FD1208E4750CFF750D09750E807B0162
:100530007A00791D7D011208E4750CFF750D0975AF
:100540000E2C7B017A00791D7D021208E4750CFFE8
:10055000750D09750E927B017A00791D7D031208D5
:10056000E4750CFF750D09750EA47B017A00791DE9
:100570007D041208E4750BFF750C0A750D3A750EB3
:10058000FF750F087510837511017B017A00791DC5
:1005900012062A750CFF750D09750EB67B017A00DF
:1005A000793AE4FD1208E4750CFF750D09750EC863
:1005B0007B017A00793A7D011208E4750CFF750D14
:1005C00009750E447B017A00793A7D021208E475C0
:1005D0000CFF750D09750EDA7B017A00793A7D03FF
:1005E0001208E4750CFF750D09750EEC7B017A009D
:1005F000793A7D041208E4750BFF750C0A750D3A03
:10060000750EFF750F087510837511027B017A0056
:10061000793A12062A7BFF7A0A79751208BE7F059D
:100620007E0012090A12084B80F48B088A09890A95
:10063000751200751300751400900002E511120286
:10064000EA90000574061202EA900007E41202EA3A
:10065000900006E41202EAAB0EAA0FA910C003C074
:1006600002C001AB08AA09A90A9000081203CAE552
:100670000D450C450B6007AA0CA90D120423E51AC1
:1006800045194518701A850818850919850A1AFB35
:10069000FAF9C003C002C001AB18AA19A91A805800
:1006A000851812851913851A14AB12AA13A9149070
:1006B000001A12039AEA494B6014AB12AA13A91448
:1006C00090001A12039A8B128A13891480DBAB08EC
:1006D000AA09A90AC003C002C001AB12AA13A91437
:1006E00090001A1203CA7B007A007900C003C0028E
:1006F000C001AB08AA09A90A90001A1203CA2278FD
:100700007FE4F6D8FD75811A020746020481E4935E
:10071000A3F8E493A34003F68001F208DFF48029F4
:10072000E493A3F85407240CC8C333C4540F4420E3
:10073000C8834004F456800146F6DFE4800B0102D2
:1007400004081020408090078BE47E019360BCA3D6
:10075000FF543F30E509541FFEE493A360010ECF20
:1007600054C025E060A840B8E493A3FAE493A3F84A
:10077000E493A3C8C582C8CAC583CAF0A3C8C5820A
:10078000C8CAC583CADFE9DEE780BE5D000000009D
:100790000000000000000000000000000000000059
:1007A00000000000000000000000005D001D0000CF
:1007B0000000000000000000000000000000000039
:1007C00000000000000000000000005D003A000092
:1007D0000000000000000000000000000000000019
:1007E00000000000000000000000000318000000EE
:1007F000008B0E8A0F8910E4FF90000812039AE91B
:100800004A4B601AAB0EAA0FA91090000212028A7E
:10081000FF90000812039A89828A83120427AB0E84
:10082000AA0FA91090000712028A6F6016900003A9
:1008300074011202B7C394044010900007EF120233
:10084000EA8000900003E41202EA227508007509AC
:1008500000750A00851808851909851A0AE50945F1
:100860000A4508601DAB08AA09A90A120003AB08D3
:10087000AA09A90A90001A12039A8B088A09890A00
:1008800080DB22E4FEEF14601414601E2402702545
:10089000E5B07F0130E3027F00AE078018E5B07F4E
:1008A0000130E2027F00AE07800BE5A07F0030E060
:1008B000027F01AE07AF06227BFF7A0A793B8B15D8
:1008C0008A168917AB15AA16A917120271FF6013B1
:1008D0000517E5177002051614F9120271FF120AC6
:1008E0000280E1228B088A09890AAB0CAA0DA90EA5
:1008F000C003C002C001AB08AA09A90A90000B7589
:10090000F003ED12038E1203CA22AC06AD07D3ED3D
:100910009400EC940040147A007B72EB1B70011A77
:10092000EB4A70F7ED1D70E61C80E3227BFF7A0A2C
:1009300079631208BE9000211209FE7BFF7A0A79C2
:10094000500208BE7BFF7A0A796C1208BE90003E06
:100950001209FE7BFF7A0A79500208BE1208B8908D
:1009600000041209FE7BFF7A0A79500208BE7BFF61
:100970007A0A79631208BE7BFF7A0A79440208BEBC
:100980007BFF7A0A79631208BE7BFF7A0A794B02F1
:1009900008BE7BFF7A0A79631208BE7BFF7A0A7968
:1009A000550208BE7BFF7A0A79631208BE7BFF7A84
:1009B0000A795C0208BE7BFF7A0A796C1208BE7B5A
:1009C000FF7A0A79440208BE7BFF7A0A796C120822
:1009D000BE7BFF7A0A794B0208BE7BFF7A0A796CEC
:1009E0001208BE7BFF7A0A79550208BE7BFF7A0A9D
:1009F000796C1208BE7BFF7A0A795C0208BEE0249B
:100A000030FF8F993099FDC299221208B87BFF7A86
:100A10000A79440208BE1208B87BFF7A0A794B02B1
:100A200008BE1208B87BFF7A0A79550208BE120880
:100A3000B87BFF7A0A795C0208BE22427574746F33
:100A40006E302000446F776E0D0A0055700D0A005D
:100A5000BBF70D0A00B3A4B0B40D0A00486F6C6474
:100A60000D0A00427574746F6E3120004275747403
:100A70006F6E322000BFAACABCB2E2CAD40D0A000F
:00000001FF
