:100000000207158B0B8A0C890D120807AB0BAA0C83
:10001000A90D9000061202A06013120322C394FFE0
:10002000E5F094FF5007E475F00112034DAB0BAA05
:100030000CA90D9000061202A01460671470030250
:1000400001441470030201F7240360030202869046
:1000500000071202A06401703C900005120300909A
:10006000000B1203B0EA494B600FAB0BAA0CA90DB1
:1000700090000B1203B0120439AB0BAA0CA90D901F
:1000800000041202A0C394FF5008900004740112EF
:1000900002CD02018DAB0BAA0CA90D9000057406D0
:1000A000020243AB0BAA0CA90D9000071202A0702C
:1000B0003B9000050412030090000E1203B0EA49C1
:1000C0004B600FAB0BAA0CA90D90000E1203B012DF
:1000D0000439AB0BAA0CA90DE4F5F0120385AB0BA8
:1000E000AA0CA90D9000067402020243AB0BAA0CE5
:1000F000A90D120322C39490E5F09401500302026B
:100100008690000574031203009000141203B0EAF5
:10011000494B600FAB0BAA0CA90D9000141203B051
:10012000120439AB0BAA0CA90D900004E4120300D1
:10013000E4F5F0120385AB0BAA0CA90D9000067430
:1001400003020243AB0BAA0CA90D9000071202A0F8
:100150006401704D90000512030090000B1203B073
:10016000EA494B600FAB0BAA0CA90D90000B1203D0
:10017000B0120439AB0BAA0CA90D9000041202A016
:10018000C394FF500890000474011202CDE4F5F00E
:10019000120385AB0BAA0CA90D9000067401020294
:1001A00043AB0BAA0CA90D120322C39432E5F094C1
:1001B00000500302028690000574021203009000B2
:1001C000111203B0EA494B600FAB0BAA0CA90D90BA
:1001D00000111203B0120439AB0BAA0CA90D900048
:1001E00004E4120300E4F5F0120385AB0BAA0CA99A
:1001F0000D900006E4804CAB0BAA0CA90D900007F3
:100200001202A070419000050412030090000E122B
:1002100003B0EA494B600FAB0BAA0CA90D90000E7E
:100220001203B0120439AB0BAA0CA90D900004E420
:10023000120300E4F5F0120385AB0BAA0CA90D9094
:100240000006E4020300AB0BAA0CA90D120322C3A3
:10025000943CE5F09400402E9000057404120300D5
:100260009000171203B0EA494B600FAB0BAA0CA920
:100270000D9000171203B0120439AB0BAA0CA90D94
:10028000E4F5F012038522BB010689828A83E0220D
:100290005002E722BBFE02E32289828A83E4932292
:1002A000BB010CE58229F582E5833AF583E0225013
:1002B00006E92582F8E622BBFE06E92582F8E2225D
:1002C000E58229F582E5833AF583E49322BB010FA9
:1002D000F8E58229F582E5833AF583E028F022509B
:1002E00009C58229F8E58226F622BBFE09C58229C6
:1002F000F8E22582F222F8EA2583F583E9932822A1
:10030000F8BB010DE58229F582E5833AF583E8F033
:10031000225006E92582C8F622BBFE05E92582C8DF
:10032000F222BB010A89828A83E0F5F0A3E0225021
:100330000687F009E71922BBFE07E3F5F009E31988
:100340002289828A83E493F5F074019322BB01072A
:1003500089828A8302043F500B09C5F027F7C5F054
:100360001937F722BBFE0D09F8E325F0F3C5F019A4
:10037000E338F322F889828A8374019325F0C5F06B
:10038000F8E4933822BB010A89828A83F0E5F0A35E
:10039000F0225006F709A7F01922BBFE06F3E5F09C
:1003A00009F31922A42582F582E5F03583F583222D
:1003B000BB010DE58229F582E5833AF583020467E6
:1003C0005007E92582F8020455BBFE07E92582F8AB
:1003D000020479E58229F582E5833AF58302048BEC
:1003E000BB0120E58229F582E5833AF583D0F0D080
:1003F000E0F8D0E0F9D0E0FAD0E0FBE8C0E0C0F0EF
:100400000204705018E92582F8D083D082D0E0F938
:10041000D0E0FAD0E0FBC082C08302045EBBFE18CD
:10042000E92582F8D083D082D0E0F9D0E0FAD0E09C
:10043000FBC082C083020482228A838982E473C55E
:10044000F0F8A3E028F0C5F0F8E5821582700215F7
:1004500083E038F022E6FB08E6FA08E6F922EBF63C
:1004600008EAF608E9F622E0FBA3E0FAA3E0F922A5
:10047000EBF0A3EAF0A3E9F022E2FB08E2FA08E2DB
:10048000F922EBF208EAF208E9F222E493FB7401A4
:1004900093FA740293F922759850758920758BFD33
:1004A000758DFDD28E750CFF750D0A750E207B01C2
:1004B0007A007900E4FD1208FA750CFF750D0A75D3
:1004C0000E2C7B017A0079007D011208FA750CFF71
:1004D000750D09750E727B017A0079007D02120894
:1004E000FA750CFF750D0A750E387B017A007900DC
:1004F0007D031208FA750CFF750D0A750E447B0119
:100500007A0079007D041208FA750BFF750C0A75E4
:100510000D50750EFF750F08751099E4F5117B01EC
:100520007A007900120640750CFF750D09750E846E
:100530007B017A00791DE4FD1208FA750CFF750D38
:1005400009750E967B017A00791D7D011208FA75F6
:100550000CFF750D09750E427B017A00791D7D0235
:100560001208FA750CFF750D09750EA87B017A004B
:10057000791D7D031208FA750CFF750D09750EBA09
:100580007B017A00791D7D041208FA750BFF750C4A
:100590000A750D50750EFF750F08751099751101CC
:1005A0007B017A00791D120640750CFF750D0975E7
:1005B0000ECC7B017A00793AE4FD1208FA750CFF43
:1005C000750D09750EDE7B017A00793A7D011208FE
:1005D000FA750CFF750D09750E5A7B017A00793A90
:1005E0007D021208FA750CFF750D09750EF07B017E
:1005F0007A00793A7D031208FA750CFF750D0A75B9
:100600000E027B017A00793A7D041208FA750BFF1D
:10061000750C0A750D50750EFF750F0875109975DC
:1006200011027B017A00793A1206407BFF7A0A793F
:100630008B1208D47F057E0012092012086180F415
:100640008B088A09890A75120075130075140090C9
:100650000002E511120300900005740612030090D9
:100660000007E4120300900006E4120300AB0EAA98
:100670000FA910C003C002C001AB08AA09A90A90C3
:1006800000081203E0E50D450C450B6007AA0CA914
:100690000D120439E51A45194518701A8508188590
:1006A0000919850A1AFBFAF9C003C002C001AB1888
:1006B000AA19A91A8058851812851913851A14AB1E
:1006C00012AA13A91490001A1203B0EA494B60143D
:1006D000AB12AA13A91490001A1203B08B128A133A
:1006E000891480DBAB08AA09A90AC003C002C001B3
:1006F000AB12AA13A91490001A1203E07B007A002F
:100700007900C003C002C001AB08AA09A90A900081
:100710001A1203E022787FE4F6D8FD75811A0207E9
:100720005C020497E493A3F8E493A34003F68001EA
:10073000F208DFF48029E493A3F85407240CC8C31B
:1007400033C4540F4420C8834004F456800146F655
:10075000DFE4800B01020408102040809007A1E430
:100760007E019360BCA3FF543F30E509541FFEE4B3
:1007700093A360010ECF54C025E060A840B8E49375
:10078000A3FAE493A3F8E493A3C8C582C8CAC583B7
:10079000CAF0A3C8C582C8CAC583CADFE9DEE7803C
:1007A000BE5D00000000000000000000000000002E
:1007B0000000000000000000000000000000000039
:1007C000005D001D000000000000000000000000AF
:1007D0000000000000000000000000000000000019
:1007E000005D003A00000000000000000000000072
:1007F00000000000000000000000000000000000F9
:10080000000318000000008B0E8A0F8910E4FF908F
:1008100000081203B0E94A4B601AAB0EAA0FA910E8
:100820009000021202A0FF9000081203B089828A91
:100830008312043DAB0EAA0FA9109000071202A06C
:100840006F601690000374011202CDC3940440102F
:10085000900007EF1203008000900003E4120300F1
:1008600022750800750900750A00851808851909A0
:10087000851A0AE509450A4508601DAB08AA09A9B9
:100880000A120003AB08AA09A90A90001A1203B0C1
:100890008B088A09890A80DB22E4FEEF14601414B5
:1008A000601E24027025E5B07F0130E3027F00AEB8
:1008B000078018E5B07F0130E2027F00AE07800BB1
:1008C000E5A07F0030E0027F01AE07AF06227BFF8C
:1008D0007A0A79518B158A168917AB15AA16A917AA
:1008E000120287FF60130517E5177002051614F949
:1008F000120287FF120A1880E1228B088A09890AEE
:10090000AB0CAA0DA90EC003C002C001AB08AA0916
:10091000A90A90000B75F003ED1203A41203E02264
:10092000AC06AD07D3ED9400EC940040147A007B44
:1009300072EB1B70011AEB4A70F7ED1D70E61C801C
:10094000E3227BFF7A0A79791208D4900021120AF7
:10095000147BFF7A0A79660208D47BFF7A0A7982CF
:100960001208D490003E120A147BFF7A0A796602BC
:1009700008D41208CE900004120A147BFF7A0A7978
:10098000660208D47BFF7A0A79791208D47BFF7A51
:100990000A795A0208D47BFF7A0A79791208D47B43
:1009A000FF7A0A79610208D47BFF7A0A7979120802
:1009B000D47BFF7A0A796B0208D47BFF7A0A7979B3
:1009C0001208D47BFF7A0A79720208D47BFF7A0A74
:1009D00079821208D47BFF7A0A795A0208D47BFF05
:1009E0007A0A79821208D47BFF7A0A79610208D4E4
:1009F0007BFF7A0A79821208D47BFF7A0A796B022C
:100A000008D47BFF7A0A79821208D47BFF7A0A79AC
:100A1000720208D4E02430FF8F993099FDC29922E8
:100A20001208CE7BFF7A0A795A0208D41208CE7BCC
:100A3000FF7A0A79610208D41208CE7BFF7A0A791C
:100A40006B0208D41208CE7BFF7A0A79720208D4AE
:100A500022427574746F6E302000446F776E0D0AF9
:100A60000055700D0A00BBF70D0A00B3A4B0B40D19
:100A70000A00486F6C640D0A00427574746F6E3121
:100A80002000427574746F6E322000BFAACABCB2D7
:060A9000E2CAD40D0A00C9
:00000001FF
